:100000000C944D000C9477000C9477000C947700BE
:100010000C9477000C9477000C9477000C94770084
:100020000C9477000C9477000C946D010C9477007D
:100030000C9477000C9477000C9477000C94770064
:100040000C9477000C9477000C9477000C94770054
:100050000C9477000C9426020C949A020C9477006E
:100060000C9477000C9477000C9477000C94770034
:100070000C9477000C9477000C9477000C94770024
:100080000C9477000C9477000C9477000C94770014
:100090000C9477008701FA020B0311241FBECFEFE7
:1000A000D0E1DEBFCDBF11E0A0E0B1E0EAE6F9E0CB
:1000B00000E00BBF02C007900D92A832B107D9F73C
:1000C00011E0A8E2B1E001C01D92A436B107E1F74A
:1000D00010E0CAE9D0E004C02297FE010E947A0431
:1000E000C439D107C9F70E946C030C94B3040C9473
:1000F0000000FC0181E090E002C0880F991F4A9542
:10010000E2F7808381E08783643419F1653428F451
:10011000623449F0633451F511C0633679F06436C6
:10012000C1F0623619F584E290E09683858383E21C
:1001300090E09283818385E290E015C087E290E0B1
:100140009683858386E290E09283818388E290E0C3
:100150000AC08AE290E09683858389E290E09283E8
:1001600081838BE290E094838383089517820895BE
:10017000FC0181E090E002C0880F991F4A95E2F7E8
:10018000808381E08783643419F1653428F4623414
:1001900049F0633451F511C0633679F06436C1F02B
:1001A000623619F584E290E09683858383E290E0DD
:1001B0009283818385E290E015C087E290E0968388
:1001C000858386E290E09283818388E290E00AC092
:1001D0008AE290E09683858389E290E0928381832E
:1001E0008BE290E094838383089517820895DC0165
:1001F00017968C911797882349F01596ED91FC91ED
:10020000169790818C918095892380830895DC01D5
:1002100017968C911797882341F01596ED91FC91D4
:10022000169780819C91892B80830895FC0111820F
:100230001082F894809170008093700088E0809321
:10024000B6001092B2008091B00085608093B0003B
:100250002091B6008091B60090E08470907030E0FC
:1002600021703070822B932B892B91F78FEF87BBF6
:10027000809170008160809370000895FC0111826C
:100280001082F894809170008093700088E08093D1
:10029000B6001092B2008091B00085608093B000EB
:1002A0002091B6008091B60090E08470907030E0AC
:1002B00021703070822B932B892B91F78FEF87BBA6
:1002C000809170008160809370000895FC01DB01D3
:1002D000808191818D939C9308951F920F920FB608
:1002E0000F9211248F939F9380912801909129015F
:1002F0000196909329018093280185B1805885B992
:100300009F918F910F900FBE0F901F90189588E2CC
:1003100091E00E943E0108959A01AB0163E0220F33
:10032000331F441F551F6A95D1F760E070E081EEDE
:1003300090E00E944204C901DA010197A109B109C4
:10034000292F3A2F4B2F55270196A11DB11D209320
:10035000C50081508093C40082E08093C000E1EC2E
:10036000F0E088E1808386E08093C2008081886924
:10037000808308950F931F938C010E948C01F801D4
:100380001182108213821282158214821F910F91A2
:1003900008950F931F938C010E948C01F801118224
:1003A000108213821282158214821F910F91089578
:1003B000FC01DB01808191818D939C930895FB0169
:1003C00080819181019665E170E00E942F04918304
:1003D00080830895EF92FF920F931F93DF93CF9343
:1003E00000D0CDB7DEB78C017B01DC0155968D9135
:1003F0009C9156979A838983C801BE016F5F7F4F96
:100400000E94DF0129813A81F8018789908D2817A0
:10041000390711F480E011C0D8015596ED91FC9197
:100420005697E00FF11FD7018C918083C8010B5EB6
:100430001F4FB8010E94DF0181E00F900F90CF9114
:10044000DF911F910F91FF90EF9008951F920F92EF
:100450000FB60F920BB60F9211242F933F934F9329
:100460005F936F937F938F939F93AF93BF93EF931C
:10047000FF93DF93CF930F92CDB7DEB7F8948091BF
:10048000C600898383E491E0BE016F5F7F4F0E94C5
:10049000EA0178940F90CF91DF91FF91EF91BF9196
:1004A000AF919F918F917F916F915F914F913F910C
:1004B0002F910F900BBE0F900FBE0F901F901895AD
:1004C0000F931F93DF93CF9300D00F92CDB7DEB77A
:1004D0008C016B8380913F01909140019A838983C5
:1004E0008AE291E0BE016F5F7F4F0E94DF012981A8
:1004F0003A8180914101909142012817390791F08A
:100500008AE291E0BE016D5F7F4F0E94EA01F8012F
:10051000808191810196918380838091C100806266
:100520008093C1000F900F900F90CF91DF911F919A
:100530000F9108951F920F920FB60F920BB60F9264
:1005400011241F932F933F934F935F936F937F9348
:100550008F939F93AF93BF93EF93FF93F894E091A2
:100560004101F091420180913F01909140018E172D
:100570009F0761F0E65DFE4F10818AE291E061E441
:1005800071E00E94DF011093C60005C08091C10098
:100590008F7D8093C1007894FF91EF91BF91AF91CF
:1005A0009F918F917F916F915F914F913F912F918B
:1005B0001F910F900BBE0F900FBE0F901F901895BC
:1005C000DB01E0915A01F0915B018091580190911B
:1005D00059018E179F0711F480E00895ED5BFE4FDF
:1005E00080818C9383E491E06AE571E00E94DF01F1
:1005F00081E008951092400110923F011092420153
:1006000010924101109259011092580110925B0111
:1006100010925A0108958CE591E062E447E00E944F
:10062000B8000895DF92EF92FF920F931F93CF933C
:10063000DF93E82ED92E8B01FF2408C0C00FD11FF5
:100640008E2D9D2D68810E946002F394CF2DD0E005
:10065000F80101900020E9F73197E01BF10BCE176C
:10066000DF0760F38E2D9D2DDF91CF911F910F91AC
:10067000FF90EF90DF900895FF920F931F93CF9319
:10068000DF93EC01FB018C010A5F1F4F60817181D8
:1006900080E090E022813381A8010E947E04FF2443
:1006A00008C0AC0FBD1FCE0116966C910E9460026F
:1006B000F394F80101900020E9F73197E01BF10B6A
:1006C000AF2DB0E0AE17BF0760F3CE01DF91CF9141
:1006D0001F910F91FF9008952F923F924F925F923A
:1006E0006F927F928F929F92AF92BF92CF92DF9242
:1006F000EF92FF920F931F93DF93CF93CDB7DEB7A7
:10070000AD970FB6F894DEBF0FBECDBF1A82198227
:100710008CE591E00E940701CE01479640E052EC43
:1007200061E070E00E94C901789467E1E62EF12C47
:10073000EC0EFD1E00E711E050E1C52ED12C4BE080
:10074000242E312C2C0E3D1E32E0432E512C2FE056
:10075000622E712C6C0E7D1E98E0892E912C83E107
:10076000A82EB12CAC0EBD1EC70160E071E00E9446
:1007700012036DE071E00E94120365E171E00E94D6
:10078000120380E197E2F8013197F1F70197D9F769
:100790002FE839E13C832B83DE82CD82C701BE0185
:1007A0006D5F7F4F0E943C036DE171E00E94120378
:1007B00080ED97E0F8013197F1F70197D9F788E2DA
:1007C00091E0BE016F5F7F4F0E94660180ED97E070
:1007D000F8013197F1F70197D9F7C7016FE171E09F
:1007E0000E94120329813A8138872F83DA86C986CD
:1007F000BE01695F7F4F0E943C036DE171E00E9482
:10080000120329813A813C872B872AE030E03E871A
:100810002D87B1010E943C036DE171E00E9412033B
:1008200089819A81988B8F875A8A498AC701B30137
:100830000E943C036DE171E00E94120329813A811C
:100840003C8B2B8B9E8A8D8AB5010E943C0380E1F4
:1008500097E2F8013197F1F70197D9F785CF97FB28
:10086000092E07260AD077FD04D02ED006D000200E
:100870001AF4709561957F4F0895F6F790958195DC
:100880009F4F0895A1E21A2EAA1BBB1BFD010DC0AC
:10089000AA1FBB1FEE1FFF1FA217B307E407F50730
:1008A00020F0A21BB30BE40BF50B661F771F881F0C
:1008B000991F1A9469F760957095809590959B01A2
:1008C000AC01BD01CF010895AA1BBB1B51E107C0BC
:1008D000AA1FBB1FA617B70710F0A61BB70B881FD0
:1008E000991F5A95A9F780959095BC01CD0108955F
:1008F000EE0FFF1F0590F491E02D0994FA01CF93BC
:10090000FF93EF932230CCF02532BCF4C22F2C2F72
:10091000332744275527FF93EF930E944204EF911A
:10092000FF91605D6A330CF0695D6193B901CA01A2
:10093000605070408040904051F710828F919F919D
:10094000CF910C94A304DC01FC01672F71917723F4
:10095000E1F7329704C07C916D9370836291AE177A
:0A096000BF07C8F30895F894FFCF15
:10096A0048656C6C6F20576F726C64200054455355
:10097A005431202000544553543220200020005482
:08098A00696D65723A2000005E
:00000001FF
