:100000000C944D000C9477000C9477000C947700BE
:100010000C9477000C9477000C9477000C94770084
:100020000C9477000C9477000C946D010C9477007D
:100030000C9477000C9477000C9477000C94770064
:100040000C9477000C9477000C9477000C94770054
:100050000C9477000C9426020C949A020C9477006E
:100060000C9477000C9477000C9477000C94770034
:100070000C9477000C9477000C9477000C94770024
:100080000C9477000C9477000C9477000C94770014
:100090000C94770087011403250311241FBECFEFB2
:1000A000D0E1DEBFCDBF11E0A0E0B1E0E0EBF8E0D1
:1000B00000E00BBF02C007900D92AA30B107D9F73C
:1000C00011E0AAE0B1E001C01D92A634B107E1F74A
:1000D00010E0CAE9D0E004C02297FE010E941D048E
:1000E000C439D107C9F70E9456030C9456040C94E6
:1000F0000000FC0181E090E002C0880F991F4A9542
:10010000E2F7808381E08783643419F1653428F451
:10011000623449F0633451F511C0633679F06436C6
:10012000C1F0623619F584E290E09683858383E21C
:1001300090E09283818385E290E015C087E290E0B1
:100140009683858386E290E09283818388E290E0C3
:100150000AC08AE290E09683858389E290E09283E8
:1001600081838BE290E094838383089517820895BE
:10017000FC0181E090E002C0880F991F4A95E2F7E8
:10018000808381E08783643419F1653428F4623414
:1001900049F0633451F511C0633679F06436C1F02B
:1001A000623619F584E290E09683858383E290E0DD
:1001B0009283818385E290E015C087E290E0968388
:1001C000858386E290E09283818388E290E00AC092
:1001D0008AE290E09683858389E290E0928381832E
:1001E0008BE290E094838383089517820895DC0165
:1001F00017968C911797882349F01596ED91FC91ED
:10020000169790818C918095892380830895DC01D5
:1002100017968C911797882341F01596ED91FC91D4
:10022000169780819C91892B80830895FC0111820F
:100230001082F894809170008093700088E0809321
:10024000B6001092B2008091B00085608093B0003B
:100250002091B6008091B60090E08470907030E0FC
:1002600021703070822B932B892B91F78FEF87BBF6
:10027000809170008160809370000895FC0111826C
:100280001082F894809170008093700088E08093D1
:10029000B6001092B2008091B00085608093B000EB
:1002A0002091B6008091B60090E08470907030E0AC
:1002B00021703070822B932B892B91F78FEF87BBA6
:1002C000809170008160809370000895FC01DB01D3
:1002D000808191818D939C9308951F920F920FB608
:1002E0000F9211248F939F9380910A0190910B019B
:1002F000019690930B0180930A0185B1805885B9CE
:100300009F918F910F900FBE0F901F9018958AE0CC
:1003100091E00E943E0108959A01AB0163E0220F33
:10032000331F441F551F6A95D1F760E070E081EEDE
:1003300090E00E94E503C901DA010197A109B10922
:10034000292F3A2F4B2F55270196A11DB11D209320
:10035000C50081508093C40082E08093C000E1EC2E
:10036000F0E088E1808386E08093C2008081886924
:10037000808308950F931F938C010E948C01F801D4
:100380001182108213821282158214821F910F91A2
:1003900008950F931F938C010E948C01F801118224
:1003A000108213821282158214821F910F91089578
:1003B000FC01DB01808191818D939C930895FB0169
:1003C00080819181019665E170E00E94D203918362
:1003D00080830895EF92FF920F931F93DF93CF9343
:1003E00000D0CDB7DEB78C017B01DC0155968D9135
:1003F0009C9156979A838983C801BE016F5F7F4F96
:100400000E94DF0129813A81F8018789908D2817A0
:10041000390711F480E011C0D8015596ED91FC9197
:100420005697E00FF11FD7018C918083C8010B5EB6
:100430001F4FB8010E94DF0181E00F900F90CF9114
:10044000DF911F910F91FF90EF9008951F920F92EF
:100450000FB60F920BB60F9211242F933F934F9329
:100460005F936F937F938F939F93AF93BF93EF931C
:10047000FF93DF93CF930F92CDB7DEB7F8948091BF
:10048000C600898385E291E0BE016F5F7F4F0E94C5
:10049000EA0178940F90CF91DF91FF91EF91BF9196
:1004A000AF919F918F917F916F915F914F913F910C
:1004B0002F910F900BBE0F900FBE0F901F901895AD
:1004C0000F931F93DF93CF9300D00F92CDB7DEB77A
:1004D0008C016B8380912101909122019A83898301
:1004E0008CE091E0BE016F5F7F4F0E94DF012981A8
:1004F0003A8180912301909124012817390791F0C6
:100500008CE091E0BE016D5F7F4F0E94EA01F8012F
:10051000808191810196918380838091C100806266
:100520008093C1000F900F900F90CF91DF911F919A
:100530000F9108951F920F920FB60F920BB60F9264
:1005400011241F932F933F934F935F936F937F9348
:100550008F939F93AF93BF93EF93FF93F894E091A2
:100560002301F091240180912101909122018E17A5
:100570009F0761F0E45FFE4F10818CE091E063E241
:1005800071E00E94DF011093C60005C08091C10098
:100590008F7D8093C1007894FF91EF91BF91AF91CF
:1005A0009F918F917F916F915F914F913F912F918B
:1005B0001F910F900BBE0F900FBE0F901F901895BC
:1005C000DB01E0913C01F0913D0180913A01909175
:1005D0003B018E179F0711F480E00895EB5DFE4FFD
:1005E00080818C9385E291E06CE371E00E94DF01F1
:1005F00081E00895DB01E0913C01F0913D018091A3
:100600003A0190913B018E179F0711F480E0089505
:10061000EB5DFE4F80818C9385E291E06CE371E0AD
:100620000E94DF0181E008951092220110922101C1
:10063000109224011092230110923B0110923A0172
:1006400010923D0110923C0108958EE391E062E426
:1006500047E00E94B8000895DF92EF92FF920F9357
:100660001F93CF93DF93E82ED92E8B01FF2408C070
:10067000C00FD11F8E2D9D2D68810E946002F394C2
:10068000CF2DD0E0F80101900020E9F73197E01B71
:10069000F10BCE17DF0760F38E2D9D2DDF91CF91EB
:1006A0001F910F91FF90EF90DF9008956F927F92CE
:1006B0008F929F92AF92BF92DF92EF92FF920F9331
:1006C0001F93DF93CF93CDB7DEB768970FB6F8943B
:1006D000DEBF0FBECDBF19828EE391E00E940701FD
:1006E000CE01029640E052EC61E070E00E94C90148
:1006F000789420E137E242E0842E912C8C0E9D1EEE
:100700003E010894611C711C90E7A92E91E0B92E5E
:1007100005C0C5010197F1F7215030402115310581
:10072000C1F7C401B3010E94FA0280E197E2F5012A
:100730003197F1F70197D9F7C40160E071E00E94A9
:100740002C038C0186E0E82EF12CE00EF11E69816D
:1007500070E080E090E0A7012AE030E00E942104F0
:10076000DD2408C0A00FB11FC80116966C910E942D
:100770006002D394F70101900020E9F73197EE1958
:10078000FF09AD2DB0E0AE17BF0760F3C801698166
:100790000E946002C80168E071E00E942C0320E121
:1007A00037E2B7CF97FB092E07260AD077FD04D092
:1007B0002ED006D000201AF4709561957F4F0895D1
:1007C000F6F7909581959F4F0895A1E21A2EAA1BE6
:1007D000BB1BFD010DC0AA1FBB1FEE1FFF1FA217F1
:1007E000B307E407F50720F0A21BB30BE40BF50BEE
:1007F000661F771F881F991F1A9469F76095709577
:10080000809590959B01AC01BD01CF010895AA1B75
:10081000BB1B51E107C0AA1FBB1FA617B70710F0EB
:10082000A61BB70B881F991F5A95A9F7809590951D
:10083000BC01CD010895EE0FFF1F0590F491E02D4E
:100840000994FA01CF93FF93EF932230CCF0253235
:10085000BCF4C22F2C2F332744275527FF93EF9347
:100860000E94E503EF91FF91605D6A330CF0695DD2
:100870006193B901CA01605070408040904051F7C7
:1008800010828F919F91CF910C944604DC01FC0162
:10089000672F71917723E1F7329704C07C916D93B4
:1008A00070836291AE17BF07C8F30895F894FFCF25
:0A08B00052455455524E3A00200004
:00000001FF
